:020000001628C0
:0E0006008312031321088A00200882000800DC
:1000140003208A110A128000840AA00A0319A10A83
:08002400F003031D0A28080087
:10002C00831603138801FF3083128800093088007F
:10003C000B30FB002630FC005D30FD00FD0B24284E
:10004C00FC0B2428FB0B2428000000000C3088003B
:10005C000B30FB002630FC005D30FD00FD0B34281E
:10006C00FC0B3428FB0B3428000000000630880001
:10007C000B30FB002630FC005D30FD00FD0B4428EE
:10008C00FC0B4428FB0B44280000000003308800C4
:10009C000B30FB002630FC005D30FD00FD0B5428BE
:1000AC00FC0B5428FB0B5428000000001C285D2876
:02400E004A2F37
:00000001FF
