:020000001628C0
:0E000600831203132B088A002A0882000800C8
:1000140003208A110A128000840AAA0A0319AB0A6F
:08002400F003031D0A28080087
:10002C00C03083120313A000F930A100A430A20049
:10003C00B030A3009930A4009230A5008230A60005
:10004C00F830A7008030A8009030A900AC01AD01B9
:10005C0083168601FF308700C03083128600071C90
:10006C005A280230FB008630FC009930FD00FD0B55
:10007C003D28FC0B3D28FB0B3D28071C59288030E4
:10008C00F00080302D067002031D4E282C08003C19
:10009C00031854280130AC02031CAD032C08203E7D
:1000AC008400000886007D28871C7D280230FB0018
:1000BC008630FC009930FD00FD0B6228FC0B622899
:1000CC00FB0B6228871C7D2880302D06F0008030C9
:1000DC007002031D732809302C0203187828AC0A0F
:1000EC000319AD0A2C08203E840000088600352830
:0200FC007E285C
:02400E004A2F37
:00000001FF
