:02000000AB282B
:10000600710DF80DF90D7408F8027508031C750FCB
:10001600F902F00DF10D0F30FC00710DF80DF90D20
:100026007408701C1C28F8027508031C750FF90269
:100036002128F80775080318750FF907F00DF10D5B
:10004600FC0B102870182D287408F807750803187B
:08005600750FF9070000080016
:0E005E00831203132B088A002A088200080070
:10006C002F208A110A128000840AAA0A0319AB0AEB
:08007C00F003031D3628080003
:10008400831203137408003A031D51287508003ABB
:10009400031D5128FF30F0007F30F100AA2883129D
:1000A4000313FD01F901F801710870040319003408
:1000B40071087506FA00FA1BFD09FB01F51F672894
:1000C400F409F509F40A0319F50AF11F6E28F00979
:1000D400F109F00A0319F10A71087504FA00FA1B10
:1000E400832803207B189628FD1F0034F009F109AA
:1000F400F00A0319F10AF809F909F80A0319F90AC7
:100104000034F51F9228F11B8E287108F90070083D
:10011400F800F101F0017628F101F001F00A003451
:10012400F109F009FB0A7328F80A0319F90A74089B
:100134007802031D762875087902031D7628F901D3
:10014400F801F00A0319F10AF11F76280000FF34C0
:020154000800A1
:10015600C03083120313A000F930A100A430A2001E
:10016600B030A3009930A4009230A5008230A600DA
:10017600F830A7008030A8009030A90083168601C9
:100186008701FF30831286008701AC01AD01803004
:10019600273AF00080302D067002031DD4282C0863
:1001A6000F3C031C7929E830F4000330F5002C08D5
:1001B600F0002D08F10042207008B0007108B1006F
:1001C6006430F4000030F5002C08F0002D08F10032
:1001D60042200A30F4000030F50042207808F00092
:1001E6007908F1007008B2007108B3000A30F40013
:1001F6000030F5002C08F0002D08F10042200A30EE
:10020600F4000030F50042207808F0007908F1008B
:100216007008B4007108B5000A30F4000030F5002B
:100226002C08F0002D08F10042207808F00079082B
:10023600F1007008B6007108B700AE01AF0180305A
:100246002F06F00080307002031D2B2932302E025B
:100256000318752907143008203E8400000886001C
:100266000D30FC00FB30FD00FD0B3729FC0B372958
:1002760000000000071087143208203E84000008A2
:1002860086000D30FC00FB30FD00FD0B4829FC0B01
:10029600482900000000871007153408203E840016
:1002A600000886000D30FC00FB30FD00FD0B5929CF
:1002B600FC0B592900000000071187153608203E5F
:1002C6008400000886000D30FC00FB30FD00FD0BAD
:1002D6006A29FC0B6A29000000008711AE0A03197F
:0E02E600AF0A2229AC0A0319AD0ACA287929E9
:02400E004A2F37
:00000001FF
