:020000001628C0
:0E000600831203132B088A002A0882000800C8
:1000140003208A110A128000840AAA0A0319AB0A6F
:08002400F003031D0A28080087
:10002C00C03083120313A000F930A100A430A20049
:10003C00B030A3009930A4009230A5008230A60005
:10004C00F830A7008030A8009030A900AC01AD01B9
:10005C0083168601FF308312860080302D06F00057
:10006C0080307002031D3C280A302C0203186228D1
:10007C002C08203E8400000886000B30FB00263044
:10008C00FC005D30FD00FD0B4928FC0B4928FB0BE7
:10009C00492800000000AC0A0319AD0A8030F000BA
:1000AC0080302D067002031D5D282C08093C0318B6
:0A00BC006128AC01AD013328622871
:02400E004A2F37
:00000001FF
