:02000000812D50
:06000600000000000800EC
:0E000C00213083120313FD00FD0B0A280800AB
:10001A000F3083120313FC004730FD00FD0B132839
:0A002A00FC0B132800000000080082
:0E003400F201F101F001F801F30100300800C3
:10004200FB14FB1F2B28FF30F300F200F100F0003D
:08005200FA0DF20CFF3008006A
:10005A0083120313DE1B33288613342886175E1B8C
:10006A003828061339280617DE1A3D2886123E2834
:10007A0086165E1A4228061243280616381847289A
:10008A00061548280611861503208611DE194F2801
:10009A008613502886175E19542806135528061702
:1000AA00DE18592886125A2886165E185E28061205
:1000BA005F2806163818632806156428061186155F
:1000CA0003208611381C6B280D206C280620080096
:1000DA007B15FB1F77280130F300F201F101F001D3
:0800EA00FA0DF20CFF300800D2
:0800F200FA1FF21300300800B0
:1000FA008312031338105C08DE002D203814080020
:10010A00831203135C08F2007208F100F20A5D0818
:10011A00F000DD0A700884000008F000710884000D
:10012A007008800071088400000803199D28892836
:06013A005C08F000080063
:1001400083120313F8010830FC00700DF80D7408D9
:10015000F8020318AD28F8070310F00DFC0BA528D2
:02016000080095
:100162000E3083120313FD00FD0BB52800000800BA
:0E017200831203133A088A003908820008003D
:1001800083120313FB017308031D77080319172952
:1001900072087606FA007708F3077E30031CD4282D
:1001A000F30203181A29D728F302031C1D29720829
:1001B000F8007108FC007008FD00F817F61703102E
:1001C000F201F101F0011830A0007D1CF128740843
:1001D000F00775080318750FF10776080318760FF6
:1001E000F207F20CF10CF00CF80CFC0CFD0C0310F7
:1001F000A00BE528F21B0129F80DF00DF10DF20D11
:10020000F3037B1B701C1329F81F1329F00A031931
:10021000F10A0319F20A031D1329F20CF10CF00C78
:10022000F30A03191A29FA1FF21300301F290130AB
:100230001A201F29023021201F2904306D200000C0
:020240000800B4
:1002420083120313FA017308031D7A147708031D3E
:10025200FA147A0803196D29033A031938297A180E
:100262003529F61F6B296929F21F69296B29720842
:100272008039FA00F21376088039F6137A060319E8
:1002820046297A08031969296B2977087302031929
:100292004D29031C61296529760872020319542924
:1002A200031C612965297508710203195B29031C66
:1002B200612965297408700203196D2903186529DB
:1002C200FA0803196B296929FA08031969296B29A4
:1002D20003140800031008000314031508000800A3
:0602E200FB15FF300800CF
:1002E800A0017208031D89297108F2007008F10045
:1002F800F001A0157208031D89297108F200F101A7
:10030800A01120167208031997292008F302031D6B
:10031800031C9B290310F21B9F29F00DF10DF20D10
:10032800F30B8F299B290130FC001A20A2290230E7
:0E033800FC006D20A2290430FC007920080092
:1003460083120313D00150084F07840000080319D5
:10035600B42950084F0784000008DC007D20D00A2D
:04036600A6290800BC
:10036A00C729803083120313CF00DA29C030CF00A7
:10037A00DA299430CF00DA29D430CF00DA29803054
:10038A00CF00DA29831203134F08013A0319B62959
:10039A004F08023A0319BB294F08033A0319BE2929
:1003AA004F08043A0319C129C4295003F0004F0821
:1003BA00F0077008CF0038147008DE002D203810BE
:0A03CA005108DE002D203814080051
:1003D400831203139F01C0309F0483161F179F17B6
:1003E40083124F08F000F00D7010F00D7010F00D36
:1003F400701070089F041F14B1201F151F1D042ABC
:100404000000002A1F101E08F100F00183161E08C8
:08041400F0040030F1040800BF
:10041C00831203137408003A031D292A7508003A45
:10042C00031D292A7608003A031D292A7708003A69
:10043C00031D292AFF30F000FF30F1007F30F2005D
:10044C00FF30F300C42A8312031377080319B82A68
:10045C0073080319BB2A720876068039FA00F21762
:10046C00F617A0017208F8007108FC007008FD0076
:10047C007408FD027508031C750FFC027608031C3A
:10048C00760FF802F801FC01FD01031C542A03103D
:10049C00F20CF10CF00CF80C0130A0007708F30210
:1004AC00031C5E2A7E302007F3070318BE2A632A3A
:1004BC007E302007F307031CC12A1830FA07FD0D04
:1004CC00FC0DF80DF00DF10DF20DA00D7408F002FD
:1004DC007508031C750FF1027608031C760FF202E7
:1004EC00760DA004201C7C2A7D14872A7408F00742
:1004FC0075080318750FF10776080318760AF207CA
:10050C007D10FA031F307A05031D652A7B1B7D1CA9
:10051C00AE2A0310F00DF10DF20DA00D7408F002CF
:10052C007508031C750FF1027608031C760FF20296
:10053C00760D20040139FD070318FC0A0319F80A8B
:10054C00031DAE2AF80CFC0CFD0CF30A0319BE2A91
:10055C00FA1FF8137808F2007C08F1007D08F0000F
:10056C000030C32A01307121C32A02301A20C32A59
:0E057C0004302120C32A08306D200000080042
:10058A00831203137008F8007108F000F101F201F8
:10059A00F301FB01FC019630F300FA017008F10047
:0C05AA007808F000F801F201742108004C
:1005B6008316031386110611061286120613861376
:1005C60083128611061186130613861206120D2053
:1005D6000D200D20861606168615032086110D2081
:1005E6008615032086110D208615032086110D2001
:1005F60006128615032086110D2086150320861106
:10060600861286178615032086110D208613061678
:1006160086150320861106128615032086110D20E5
:1006260086150320861106168615032086110D20D1
:1006360006128615032086118617061786160616D5
:0C0646008615032086110D2038140800D2
:10065200B9208A110A128000840AB90A0319BA0A57
:08066200F003031D292B080021
:10066A00FF3083120313B500FF30B600FF30B70026
:10067A00FF309F01C0309F0483161F179F178312F4
:04068A001F14080031
:10068E0083120313DA01DB014F08D6005008D7009E
:10069E005108D8005208D9005908FF3A031D612BA2
:1006AE005808FF3A031D612B5708FF3A031D612BB3
:1006BE005608FF3A031D6B2B5308DC002130DD007A
:1006CE0085200330F000402D0130D400D81F7A2B46
:1006DE0080305806F0007008D800D40A5308840001
:1006EE002D308000D30A0030F0005906031D892BEF
:1006FE0070085806031D892B70085706031D892B99
:10070E005608003A031D922B5308DC002530DD00FD
:10071E008520F001402D5908FF3A031DA02B5808E3
:10072E00003A031DA02B5708003A031DA02B5608B4
:10073E00003A031DAA2B5308DC002730DD0085206C
:10074E005408F000402D0030F4000030F500003069
:10075E00F6007F30F7005608F0005708F1005808F1
:10076E00F2005908F3002121013003180030F00087
:10077E0070080319DD2B5608F0005708F1005808D1
:10078E00F2005908F3000030F4000030F50020307C
:10079E00F6008230F700C0207008D6007108D7002E
:1007AE007208D8007308D900DB03AA2B0030F400BE
:1007BE000030F5002030F6008230F7005608F000C9
:1007CE005708F1005808F2005908F30021210130B2
:1007DE00031C0030F00070080319102C5608F000AE
:1007EE005708F1005808F2005908F300CD30F40014
:1007FE00CC30F5004C30F6007B30F700C02070088E
:10080E00D6007108D7007208D8007308D900DB0A29
:10081E00DD2BFF305605F800FF305705F9007F300D
:10082E005805FA0000305905FB007808F4007908E5
:10083E00F5007A08F6007B08F700F40DF50DF60DBD
:10084E00F70D741000305605F00000305705F1001A
:10085E0000305805F200FF305905F3007008D6003D
:10086E007108D7007208D8007308D90074085604AE
:10087E00F00075085704F10076085804F200770866
:10088E005904F3007008D6007108D7007208D8001A
:10089E007308D9007F305902F0007008D50001307E
:1008AE00D9007008F4005608F0005708F1005808F7
:1008BE00F2005908F300740803196C2CF00DF10DB9
:1008CE00F20DF30D7010FF3E632C7008D600710808
:1008DE00D7007208D8007308D9005908303EF000CE
:1008EE005308840070088000D30A80305B06F00045
:1008FE008030013A7002031C8D2C8030063AF000D5
:10090E0080305B067002031C8D2C942C53088400DF
:10091E002E308000D30A0130DA000630D50055089B
:10092E00003A0319F22CD9015608F0005708F100CD
:10093E005808F2005908F300F00DF10DF20DF30D09
:10094E007010F00DF10DF20DF30D70105608F0074A
:10095E0057080318570FF10758080318580FF207D6
:10096E0059080318590FF3077008D6007108D700FD
:10097E007208D8007308D9005608F0005708F10025
:10098E005808F2005908F300F00DF10DF20DF30DB9
:10099E0070107008D6007108D7007208D80073085E
:1009AE00D9005908303EF0005308840070088000CA
:1009BE00D30A5A08003A031DF02CDB035B08003AF9
:1009CE00031DF02C530884002E308000D30A013012
:1009DE00DA00D503962CFF30530784000008303A16
:1009EE00031DFB2CD303F22CFF30530784000008A9
:1009FE002E3A031D032DD3035B08003A03193C2D39
:100A0E005308840065308000D30A80305B06F00006
:100A1E008030003A700203181C2D530884002D30CC
:100A2E008000D30A5B08003CDB005B08D5005B0846
:100A3E00093C03182E2D0A30F4005508F000A020B2
:100A4E003030F0075308840070088000D30A0A3053
:100A5E00F4005508F000A0207808F0003030F007C0
:100A6E005308840070088000D30A53088400800164
:040A7E00F00108007B
:100A8200532D803083120313CF00662DC030CF0068
:100A9200662D9430CF00662DD430CF00662D803085
:100AA200CF00662D831203134F08013A0319422D1A
:100AB2004F08023A0319472D4F08033A03194A2DEA
:100AC2004F08043A03194D2D502D5003F0004F08E2
:100AD200F0077008CF007008DE002D203810D20118
:100AE200520851078400000803197F2D520851074C
:100AF20084000008DC007D20D20A712D3814080021
:100B0200F625831603138601FF30850080309F008F
:100B1200DB2235230130DE002D200C30DE002D20BB
:100B22000130CF000130D0002B30D10041250330FD
:100B3200CF00EA21C522F630F4002830F5001C303F
:100B4200F6008130F700C0207008BB007108BC00BD
:100B52007208BD007308BE000030F4000030F500DA
:100B62002030F6008230F7000E227008BB007108B8
:100B7200BC007208BD007308BE007008CF00710887
:100B8200D0007208D1007308D2003F30D30047234F
:100B92000130CF000630D0003F30D1004125013076
:100BA200CF000F30D000DF30D100B5213330CF007D
:060BB200A321982DDB2DAC
:100BEC0021308400143083120313F000E130B9007B
:080BFC000530BA0029230800AE
:080BC2004E3461344E3400345E
:040BCA00303400348F
:080BCE0049344E344634003472
:100BD600543465346D3470343A342034203400345F
:040BE6004334003460
:02400E004A2F37
:00000001FF
