:020000001628C0
:0E0006008312031321088A00200882000800DC
:1000140003208A110A128000840AA00A0319A10A83
:08002400F003031D0A28080087
:10002C0083160313860188018312860180308800B1
:10003C000D30FC00FB30FD00FD0B2228FC0B2228B0
:10004C0000000000FF308600403088000D30FC00BE
:10005C00FB30FD00FD0B3028FC0B302800000000AD
:10006C00FF308600203088000D30FC00FB30FD0096
:10007C00FD0B3E28FC0B3E280000000018308600CB
:10008C00103088000D30FC00FB30FD00FD0B4C28BF
:10009C00FC0B4C280000000018308600083088004B
:1000AC000D30FC00FB30FD00FD0B5A28FC0B5A28D0
:1000BC0000000000FF308600043088000D30FC008A
:1000CC00FB30FD00FD0B6828FC0B682800000000CD
:1000DC00FF308600023088000D30FC00FB30FD0044
:1000EC00FD0B7628FC0B7628000000008601013001
:1000FC0088000D30FC00FB30FD00FD0B8328FC0B51
:0A010C008328000000001A288A284A
:02400E004A2F37
:00000001FF
