:02000000912845
:0E0006008312031321088A00200882000800DC
:1000140083120313F101F20180307206F000803084
:100024007002031D17283230710203183228061497
:100034000330FC001230FD00FD0B1E28FC0B1E28B3
:10004400000006103230FC00DD30FD00FD0B2828D6
:10005400FC0B282800000000F10A0319F20A0E28FC
:02006400080092
:1000660083120313F101F20180307206F000803032
:100076007002031D40283230710203185B280614F3
:100086000430FC00E430FD00FD0B4728FC0B47283C
:10009600000006103130FC000B30FD00FD0B51282E
:1000A600FC0B512800000000F10A0319F20A372858
:0200B600080040
:1000B80083120313F101F20180307206F0008030E0
:1000C8007002031D6928323071020318842806144F
:1000D8000630FC00B530FD00FD0B7028FC0B7028C5
:1000E8000000000006102F30FC003A30FD00FD0B28
:1000F8007B28FC0B7B280000F10A0319F20A602810
:020108000800ED
:10010A0003208A110A128000840AA00A0319A10A8C
:08011A00F003031D8528080015
:10012200831603138601831286010A203330FB00F3
:10013200BB30FC00DF30FD00FD0B9D28FC0B9D2831
:10014200FB0B9D280000000033203330FB00BB3046
:10015200FC00DF30FD00FD0BAC28FC0BAC28FB0BD8
:10016200AC28000000005C203330FB00BB30FC00F8
:10017200DF30FD00FD0BBB28FC0BBB28FB0BBB28B3
:08018200000000009628C428CB
:02400E004A2F37
:00000001FF
